:020000002E29A7
:10000600831203137008F100F0010830FC00710838
:10001600F40C03181228FC0B0B28F1010034031012
:100026001728F40C0318F107F10CF00CFC0B14283C
:020036000800C0
:0E0038008312031327088A002608820008009E
:1000460083120313881208108811881008110812E9
:020056000800A0
:10005800831203132408013A031D9028A4010030D9
:10006800871A0130A500871E652888100811881195
:10007800081408160130A2002208033C031C61285A
:1000880022088600F101871AF10A25087106031D66
:100098005028071A5028512861280B30FB002630B9
:1000A800FC005D30FD00FD0B5728FC0B5728FB0BAF
:1000B800572800000000A20A402886010812881666
:1000C8009028881208120810881588140130A20098
:1000D8002208033C031C8D2822088600F101871A98
:1000E800F10A25087106031D7C28071A7C287D283B
:1000F8008D280B30FB002630FC005D30FD00FD0B29
:100108008328FC0B8328FB0B832800000000A20A2D
:100118006C28860188100815F101871AF10A25084C
:0C0128007106031999280130A40008009A
:100134001C208A110A128000840AA60A0319A70A3D
:08014400F003031D9A280800D6
:10014C0083120313881208148811881008110816DA
:10015C00A001A101A2012630220203182C29071AA2
:10016C00BA28860123202C29A00A21082007860002
:10017C000B30FB002630FC005D30FD00FD0BC4286D
:10018C00FC0BC428FB0BC428000000002108F00065
:10019C00F00CF013F00CF013F00CF013F00CF01357
:1001AC000A30F40003207008A80070082007F10042
:1001BC00F2010318F20A00307206031DE72803301F
:1001CC007106031DEC28081288160F292808200731
:1001DC00F100F2010318F20A00307206031DF82830
:1001EC0017307106031DFF28881288150810881413
:1001FC000F2928082007F100F2010318F20A003039
:10020C007206031D0B291A307106031D0F29881065
:10021C0008152008093A031D2A2923082107F00094
:10022C007008A100A001700886000B30FB0026307E
:10023C00FC005D30FD00FD0B2129FC0B2129FB0B83
:10024C00212900000000A20AA20AB12823200800DC
:10025C0083120313A001A101A2011030A3000130ED
:10026C00A400A501831686018801303087000F3069
:10027C008312870086018801071E4929232001303B
:0C028C00A400A6204A292C2042294B295E
:02400E004A2F37
:00000001FF
