:0200000036299F
:10000600831203137008F100F0010830FC00710838
:10001600F40C03181228FC0B0B28F1010034031012
:100026001728F40C0318F107F10CF00CFC0B14283C
:020036000800C0
:0E0038008312031327088A002608820008009E
:1000460083120313881208108811881008110812E9
:020056000800A0
:10005800831203132408013A031D9828A4010030D1
:10006800871A0130A500871E692807108710071511
:100078008715881008118811081408160130A20085
:100088002208033C031C652822088600F101871A10
:10009800F10A25087106031D5428071A5428552803
:1000A80065280B30FB002630FC005D30FD00FD0BA1
:1000B8005B28FC0B5B28FB0B5B2800000000A20AF6
:1000C80044288601081288169828071487140711EF
:1000D8008711881208120810881588140130A200A8
:1000E8002208033C031C952822088600F101871A80
:1000F800F10A25087106031D8428071A8428852813
:1001080095280B30FB002630FC005D30FD00FD0B10
:100118008B28FC0B8B28FB0B8B2800000000A20A05
:100128007428860188100815F101871AF10A250834
:0C01380071060319A1280130A400080082
:100144001C208A110A128000840AA60A0319A70A2D
:08015400F003031DA2280800BE
:10015C0083120313881208148811881008110816CA
:10016C00A001A101A2012630220203183429071A8A
:10017C00C228860123203429A00A210820078600E2
:10018C000B30FB002630FC005D30FD00FD0BCC2855
:10019C00FC0BCC28FB0BCC28000000002108F00045
:1001AC00F00CF013F00CF013F00CF013F00CF01347
:1001BC000A30F40003207008A80070082007F10032
:1001CC00F2010318F20A00307206031DEF28033007
:1001DC007106031DF4280812881617292808200711
:1001EC00F100F2010318F20A00307206031D002917
:1001FC0017307106031D07298812881508108814FA
:10020C00172928082007F100F2010318F20A003020
:10021C007206031D13291A307106031D1729881045
:10022C0008152008093A031D322923082107F0007C
:10023C007008A100A001700886000B30FB0026306E
:10024C00FC005D30FD00FD0B2929FC0B2929FB0B63
:10025C00292900000000A20AA20AB92823200800BC
:10026C0083120313A001A101A2011030A3000130DD
:10027C00A400A501831686018801303087000F3059
:10028C008312870086018801071E53290F308700CF
:10029C0023200130A400AE2054292C204A295529B2
:02400E004A2F37
:00000001FF
